{
  "_format": "hh-sol-artifact-1",
  "contractName": "Counter",
  "sourceName": "contracts/Counter.sol",
  "abi": [
    {
      "inputs": [
        {
          "internalType": "uint256",
          "name": "_cnt",
          "type": "uint256"
        }
      ],
      "stateMutability": "nonpayable",
      "type": "constructor"
    },
    {
      "anonymous": false,
      "inputs": [
        {
          "indexed": true,
          "internalType": "string",
          "name": "key",
          "type": "string"
        },
        {
          "indexed": false,
          "internalType": "uint256",
          "name": "oldCnt",
          "type": "uint256"
        },
        {
          "indexed": false,
          "internalType": "uint256",
          "name": "newCnt",
          "type": "uint256"
        }
      ],
      "name": "Add",
      "type": "event"
    },
    {
      "anonymous": false,
      "inputs": [
        {
          "indexed": true,
          "internalType": "string",
          "name": "key",
          "type": "string"
        },
        {
          "indexed": false,
          "internalType": "uint256",
          "name": "oldCnt",
          "type": "uint256"
        },
        {
          "indexed": false,
          "internalType": "uint256",
          "name": "newCnt",
          "type": "uint256"
        }
      ],
      "name": "Sub",
      "type": "event"
    },
    {
      "inputs": [
        {
          "internalType": "uint256",
          "name": "_n",
          "type": "uint256"
        }
      ],
      "name": "add",
      "outputs": [],
      "stateMutability": "nonpayable",
      "type": "function"
    },
    {
      "inputs": [],
      "name": "cnt",
      "outputs": [
        {
          "internalType": "uint256",
          "name": "",
          "type": "uint256"
        }
      ],
      "stateMutability": "view",
      "type": "function"
    },
    {
      "inputs": [],
      "name": "show",
      "outputs": [
        {
          "internalType": "uint256",
          "name": "",
          "type": "uint256"
        }
      ],
      "stateMutability": "view",
      "type": "function"
    },
    {
      "inputs": [
        {
          "internalType": "uint256",
          "name": "_n",
          "type": "uint256"
        }
      ],
      "name": "sub",
      "outputs": [],
      "stateMutability": "nonpayable",
      "type": "function"
    }
  ],
  "bytecode": "0x608060405234801561001057600080fd5b506040516104c13803806104c18339818101604052810190610032919061007a565b80600081905550506100a7565b600080fd5b6000819050919050565b61005781610044565b811461006257600080fd5b50565b6000815190506100748161004e565b92915050565b6000602082840312156100905761008f61003f565b5b600061009e84828501610065565b91505092915050565b61040b806100b66000396000f3fe608060405234801561001057600080fd5b506004361061004c5760003560e01c80631003e2d21461005157806327ee58a61461006d578063cc80f6f314610089578063d6d838ad146100a7575b600080fd5b61006b600480360381019061006691906101f1565b6100c5565b005b610087600480360381019061008291906101f1565b610136565b005b6100916101a7565b60405161009e919061022d565b60405180910390f35b6100af6101b0565b6040516100bc919061022d565b60405180910390f35b6000805490506000826000546100db9190610277565b9050806000819055506040516100f090610302565b60405180910390207ff8aa7cd5d797416490f5f0f5b9cf0471b1da9e3929f67141168fd00a2286f9638383604051610129929190610317565b60405180910390a2505050565b60008054905060008260005461014c9190610340565b905080600081905550604051610161906103c0565b60405180910390207fa4a6537c8cb5ba3db5927342f4b97ebc37585af3e290d6938cc16c968e54bad1838360405161019a929190610317565b60405180910390a2505050565b60008054905090565b60005481565b600080fd5b6000819050919050565b6101ce816101bb565b81146101d957600080fd5b50565b6000813590506101eb816101c5565b92915050565b600060208284031215610207576102066101b6565b5b6000610215848285016101dc565b91505092915050565b610227816101bb565b82525050565b6000602082019050610242600083018461021e565b92915050565b7f4e487b7100000000000000000000000000000000000000000000000000000000600052601160045260246000fd5b6000610282826101bb565b915061028d836101bb565b92508282019050808211156102a5576102a4610248565b5b92915050565b600081905092915050565b7f6164640000000000000000000000000000000000000000000000000000000000600082015250565b60006102ec6003836102ab565b91506102f7826102b6565b600382019050919050565b600061030d826102df565b9150819050919050565b600060408201905061032c600083018561021e565b610339602083018461021e565b9392505050565b600061034b826101bb565b9150610356836101bb565b925082820390508181111561036e5761036d610248565b5b92915050565b7f7375620000000000000000000000000000000000000000000000000000000000600082015250565b60006103aa6003836102ab565b91506103b582610374565b600382019050919050565b60006103cb8261039d565b915081905091905056fea26469706673582212207f397cc14a5cef3c9d7ff486ed682f4b47e687779dc92d0e80413ffc9a6ac5c964736f6c63430008180033",
  "linkReferences": {},
  "deployedLinkReferences": {}
}